:02000002B0004C
:1040000000400B005A680B00000006000C0005027F
:084010000401B41400000000DB
:04401800E0620B0057
:10401C0010F8012B11F8013B012A28BF9A42F7D066
:10402C00D01A7047034613F8012B002AFBD1181A3B
:10403C000138704709480A49884208B505D0094A31
:10404C00824202D0121A02F093F80748074A002164
:10405C00121A02F09BF8014808BD00BFF8E40320D7
:10406C0030670B00F4E50320F4E50320F0E70320B0
:10407C0070B5074E074C01F0CFF9A41BA40800251E
:10408C00AC4200D170BD56F8043B98470135F7E7B8
:10409C00E8660B000C670B0000F03AB808B500F0AE
:1040AC005DF8BDE8084001F06FB900F04DBF00F0BD
:1040BC004BBF00F051BF00F04FBF0078B0FA80F05A
:1040CC004009704701230370704700001FB501467B
:1040DC00684601F050F80B49684601F085F8044633
:1040EC0038B1094B01221A60684600F0F9FF04B0A0
:1040FC0010BD0649684601F077F80028F4D0024B51
:10410C001C60F1E734E60320D8E60320F4E5032035
:10411C001FB501F09FFA0E4C4FF4165101F08EFAB8
:10412C00684600F001FF0099204600F037FB684616
:10413C0000F0D6FF074B2046196800F05EFD064BD9
:10414C001968204604B0BDE8104000F056BD00BF11
:10415C0074E6032034E60320F4E50320F0B54F4861
:10416C0085B000F02BFA002800F083804B4800F05B
:10417C00FCFB4B4D4B4B4C4C1F682B68242673435C
:10418C000A22E158684601F01CF8009A4348394667
:10419C0000F08FFB684600F0A3FF444B1F682B68B0
:1041AC0006FB03430A225968684601F00AF8009A94
:1041BC003A48394600F07DFB684600F091FF3C4BD5
:1041CC001F682B6806FB03430A229968684600F0B7
:1041DC00F8FF009A3148394600F06BFB684600F056
:1041EC007FFF344B1F682B6806FB03430A22D968F8
:1041FC00684600F0E6FF009A2848394600F059FB63
:10420C00684600F06DFF2C4B1F682B6806FB0343C0
:10421C000A221969684600F0D4FF009A1F483946F3
:10422C0000F047FB684600F05BFF244B1F682B68CF
:10423C0006FB03430A225969684600F0C2FF009A44
:10424C001648394600F035FB684600F049FF2B68EC
:10425C0006FB0343986901F055F8194A2B6812685C
:10426C0003EBC303134404EB8304E3692B6005B035
:10427C00F0BD684600F058FE0099084800F08EFA30
:10428C00684600F02DFF0F4B0448196800F0B5FC90
:10429C000D4B0248196800F0B0FC6AE774E6032085
:1042AC00D4E6032044E60320F8E4032064E603206C
:1042BC0054E6032004E6032024E6032014E603203E
:1042CC00D8E6032034E60320F4E5032007B50021EB
:1042DC00012000F0ADFD002340F25B720093144905
:1042EC00144B154800F08EF81449154800F043FFA4
:1042FC001449154800F03FFF1449154800F03BFFE6
:10430C001449154800F037FF1449154800F033FFE5
:10431C001449154800F02FFF1449154800F02BFFE5
:10432C001449154803B05DF804EB00F024BF00BF3E
:10433C00F4620B00D9400B0074E6032003630B00FE
:10434C0044E6032015630B0064E6032027630B008F
:10435C0054E6032039630B0004E603204A630B0088
:10436C0024E603205B630B0014E603206C630B0054
:10437C0034E603207C630B00F4E5032091F85C30F9
:10438C0010B50446016013B1886D00F069FC20463D
:10439C0010BD10B5036893F85C20044612B1986DFB
:1043AC0000F066FC204610BDF8B51F469DF8243081
:1043BC0004460D4616462BB1012380F85C3058306C
:1043CC0000F046FC089B23630023636306B1A664DC
:1043DC0025B1294604F1380000F0E1FE069B236567
:1043EC00079BE069A4F84C70FF2BB8BFFF23A4F81F
:1043FC00543008B1FFF75DFEB4F85400FFF757FED8
:10440C00E061F8BD2DE9FF410446002517469846AA
:10441C000E4601F04FFC0D49E56104F1380000F047
:10442C00AAFE9DF82830A564CDE90283FF220F2354
:10443C00CDE90032204684F85C503B462A46314692
:10444C00FFF7B2FF204604B0BDE8F081E4660B0034
:10445C0010B50446204601F089FB0028FAD020460E
:10446C0001F092F9C0B210BD2DE9F047054688461F
:10447C00FFF7EEFFEB691870EB6993F800A04FF0B3
:10448C0001090AF0F00A00274C462846FFF7E0FF26
:10449C002646EB69985500F07F0313FB09F31F4484
:1044AC0001340306A4B2BFB24FEAC919EDD4631E9E
:1044BC00BAF1300F88F800301ED12846FFF7C8FF3C
:1044CC00EB6918552846FFF7C3FFF41C0236B6B249
:1044DC00EB69A4B298550226B6B2BE420ED228465B
:1044EC00FFF7B6FFB5F85430A34284BFEB691855FB
:1044FC000134A4B20136EFE70026EDE7B5F85430ED
:10450C00A3422CBF20460020BDE8F0872DE9F341E3
:10451C0015461E461A4607460023964602A802F088
:10452C007F0CBEF17F0F03F10104034488BF4CF0F4
:10453C00800CBEF17F0F4FEAD212E4B203F804CC28
:10454C001ED8C4F10403C4F10500E954224601A9A4
:10455C00284405EB030801F00BFE721C2244414673
:10456C00384601F0FCF8054600F06AFB621C7862E4
:10457C003244A8B2131A5842584102B0BDE8F08137
:10458C002346CAE70233F0B5054698B20023CE5C49
:10459C009CB256B1B5F854C0844503F1010704D957
:1045AC00441C16543B46A0B2F1E799B2411A0A4496
:1045BC00210A02F8021C02F8013CF0BD38B5044691
:1045CC0001F0F6F9002814BF0125002502D1204680
:1045DC0001F026FB284638BD2DE9F04788B004468B
:1045EC00DDF840809DF850A0894617461E46FFF71F
:1045FC00E5FF0546002840F0CD80214601A8FFF7D5
:10460C00BDFEA16C002940F08880B4F84C20A16B51
:10461C002B46204601F04EF900287AD00123238442
:10462C009DF85430E269042B5B4B40F08180186894
:10463C0099889B79ADF80C108DF80E300290C2F869
:10464C0005009DF80E30BDF80C10A2F80910D372BD
:10465C000C23B8F1000F00F081809DF848009DF804
:10466C004420400140EAC20040F00600C0B2BAF15A
:10467C00000F01D100F0FD001FB1002E70D140F0F1
:10468C008000E269D054226DE169581C12120A5460
:10469C009A1CE169206D88540333E269494620462F
:1046AC00FFF770FF0346B8F1000F0BD0E2694146EB
:1046BC002046FFF767FFE269139903462046FFF790
:1046CC0061FF034667B1E26939462046FFF75AFF9E
:1046DC0003462EB1E26931462046FFF753FF0346ED
:1046EC00053BE2699BB210212046FFF70FFF00F05B
:1046FC00A7FAC4E909004FF47A76204601F036FA9D
:10470C0088BB00F09DFAA36AC01A236D73439842CC
:10471C00F3D9204601F084FA35E002A800F02CFF12
:10472C00B4F84C202B4602A9204601F0A3F973E7FC
:10473C00D3F80700D3F80B10DB7B0DF1080CACE8B9
:10474C0003008CF8003002AB03CBC2F80500C2F8B2
:10475C0009109CF8003053730E237AE7022086E789
:10476C0040F0C0008DE702A92046FFF77DFE04282B
:10477C00CFD1E369DE78002ECBD100F061FA0125B0
:10478C00A06284F82C6001A8FFF703FE284608B04D
:10479C00BDE8F0870025F9E7D0620B007FB5012357
:1047AC000422CDE904320023CDE90233CDE90033F4
:1047BC001A46FFF711FF07B05DF804FB2DE9F74F20
:1047CC00DDF83C809DF834509DF8389004468B46BB
:1047DC0016461F46FFF7F2FE8246002851D02146AE
:1047EC0001A8FFF7CBFDB4F85420E069002101F0DB
:1047FC00CDFC0523E26959462046FFF7C3FE6B1E2C
:10480C00012B15D8218CE369013189B22184090A65
:10481C001954421CE369218C92B20230995480B233
:10482C00B8F1000F04D0238C5A1C2284A8F8003055
:10483C0000210B188F42E2699BB20AD9B4F854C01C
:10484C009C4506D916F801C002F803C0013189B2A3
:10485C00EFE79DF8301000290CBF30213121B9F160
:10486C00000F01D041F00801022D0ED141F00401DE
:10487C00053B9BB22046FFF749FE824601A8FFF795
:10488C0088FD504603B0BDE8F08F012D08BF41F004
:10489C000201EDE71FB5089C0394002402949DF8D7
:1048AC001C4001949DF818400094FFF787FF04B05A
:1048BC0010BD30B587B00446104605910492FFF741
:1048CC00B1FB00250346CDE90155DDE90421009536
:1048DC002046FFF7DFFF07B030BD73B504460E4628
:1048EC00FFF76CFE0546C8B1214601A8FFF746FD4F
:1048FC00E36962221A70E36902225A70E369320A90
:10490C009A70E369DE70E1690422204600F027FF0B
:10491C00051E01A818BF0125FFF73BFD284602B074
:10492C0070BD73B504460E46FFF748FE0546C8B188
:10493C00214601A8FFF722FDE36972221A70E36990
:10494C0002225A70E369320A9A70E369DE70E169F7
:10495C000422204600F003FF051E01A818BF012504
:10496C00FFF717FD284602B070BD2DE9F04F2DED75
:10497C00028B87B000AF0446FFF720FE8146F8B1EA
:10498C00214607F11400FFF7F9FC00F059F9236DEB
:10499C004FF47A725343A26A821A9A42064603D89B
:1049AC00626A821A934221D294F82C307BB1204651
:1049BC0001F036F94FF0000907F11400FFF7E9FC9C
:1049CC0048461C37BD46BDEC028BBDE8F08FE26952
:1049DC00C0211170E2695370E1690222204600F097
:1049EC00BEFEC4E90966012384F82C30204601F090
:1049FC00BDF80028E0D007F113012046FFF734FD85
:104A0C0083460028D8D0E369A662197801F0F00239
:104A1C00302A7FD1D4F830A0BAF1000FCCD097F85F
:104A2C0013C06A4608EE102A03EB0C0251789578F5
:104A3C0005EB0125ADB205F108026946D208A1EBE0
:104A4C00C20295460CF10302FA6003EB020E0DEB69
:104A5C0005026846C7F808D07A60D7E901218A4276
:104A6C0006D00A461EF8018B02F8018BBA60F4E7F7
:104A7C000022425593F80080F96808F00608ABEB69
:104A8C000C02033AB8F1020FA2EB0502294425D11E
:104A9C0013F801E01944023A91F801B00CF1050148
:104AAC00294419440BEB0E2BD047E36940221A70B2
:104ABC00E3691FFA8BFB83F80180E3694FEA1B2241
:104ACC009A70E36983F803B0E1690422204600F090
:104ADC0046FE666218EE103A9D466DE7B8F1040F7B
:104AEC0015D113F801E01944023A91F801B00CF118
:104AFC000501294419440BEB0E2BD047E3695022D6
:104B0C001A70E36902221FFA8BFB5A70D5E719441D
:104B1C00D047DFE7502A08D19A78D97801EB0221E7
:104B2C0089B22046FFF7D9FE46E7402A12D1626BC4
:104B3C00002A3FF441AFBBF1040F7FF43DAF11F0FD
:104B4C00060F7FF439AF9978D87800EB012080B24A
:104B5C00904731E7602A08D19A78D97801EB022185
:104B6C0089B22046FFF7DDFE26E7702ADFD0902AB7
:104B7C003FF422AFC02A0AD1D0221A70E369002276
:104B8C005A70E1690222204600F0E9FD14E7D02AB0
:104B9C0004BF002384F82C300EE7F7B504460F460B
:104BAC001646FFF70BFD054610B3214601A8FFF78B
:104BBC00E5FB238C01339BB2EBB12384238CE2699C
:104BCC001B0A5371E369228C9A71E26907233946F7
:104BDC002046FFF7D7FCE3691E54043883B2E26920
:104BEC0082212046FFF792FC054601A8FFF7D1FB76
:104BFC00284603B0F0BD0123DFE70022FFF7CDBF4D
:104C0C0008B5024B1B689B68019308BD6802030042
:104C1C0008B5024B1B68DB68019308BD68020300F2
:104C2C0008B5024B1B685B69019308BD6C0203005D
:104C3C0008B5024B1B685B68019308BD18020300A2
:104C4C0008B5024B1B685B69019308BD1802030091
:104C5C0008B5024B1B681B6B019308BD480203008F
:104C6C0008B5024B1B689B6B019308BD48020300FF
:104C7C0008B5024B1B681B6C019308BD480203006E
:104C8C0008B5024B1B685B6C019308BD480203001E
:104C9C0008B5024B1B685B69019308BD64020300F5
:104CAC0008B5024B1B681B6A019308BD6402030024
:104CBC0008B5024B1B689B6A019308BD6402030094
:104CCC0008B5024B1B68DB68019308BD3C0203006E
:104CDC0008B5024B1B681B69019308BD3C0203001D
:104CEC0008B5024B1B685B69019308BD3C020300CD
:104CFC0008B5024B1B689B69019308BD3C0203007D
:104D0C0008B5024B1B68DB69019308BD3C0203002C
:104D1C0008B5024B1B689B6A019308BD3C0203005B
:104D2C0008B5024B1B681B6C019308BD3C020300C9
:104D3C0008B5024B1B689B69019308BD3802030040
:104D4C0008B5024B1B68DB69019308BD38020300F0
:104D5C0008B5024B1B681B6A019308BD380203009F
:104D6C0008B5024B1B689B6A019308BD380203000F
:104D7C0008B5024B1B681B6B019308BD380203007E
:104D8C0008B5024B1B689B6B019308BD38020300EE
:104D9C0008B5024B1B681B68019308BD4C0203004D
:104DAC0008B5024B1B685B68019308BD4C020300FD
:104DBC0008B5024B1B681B69019308BD4C0203002C
:104DCC0008B5024B1B685B69019308BD4C020300DC
:104DDC0008B5024B1B689B69019308BD4C0203008C
:104DEC0008B5024B1B68DB69019308BD4C0203003C
:104DFC0008B5024B1B681B6A019308BD4C020300EB
:104E0C0008B5024B1B681B6D019308BD60020300C3
:104E1C0008B5024B1B685B68019308BD20020300B8
:104E2C0008B5024B1B685B69019308BD20020300A7
:104E3C0008B5024B1B68DB6A019308BD2002030016
:104E4C0008B5034B1B68D3F88830019308BD0000EC
:104E5C002002030008B5034B1B68D3F89430019370
:104E6C0008BD00002002030008B5024B1B685B68FC
:104E7C00019308BD4002030008B5024B1B689B68F8
:104E8C00019308BD4002030008B5024B1B68DB68A8
:104E9C00019308BD4002030008B5024B1B681B6957
:104EAC00019308BD4002030008B5024B1B685B6907
:104EBC00019308BD4002030008B5024B1B689B69B7
:104ECC00019308BD4002030008B5024B1B68DB6967
:104EDC00019308BD4002030008B5024B1B681B6A16
:104EEC00019308BD4002030008B5024B1B681B6B05
:104EFC00019308BD4002030008B5024B1B685B6BB5
:104F0C00019308BD4002030008B5024B1B681B6CE3
:104F1C00019308BD4002030008B5024B1B685B6C93
:104F2C00019308BD4002030008B5024B1B68DB6906
:104F3C00019308BD4402030008B5024B1B68DB6BF0
:104F4C00019308BD4402030008B5024B1B681B68A3
:104F5C00019308BD1C02030008B5024B1B685B687B
:104F6C00019308BD1C02030008B5024B1B689B682B
:104F7C00019308BD1C02030008B5024B1B68DB6BD8
:104F8C00019308BD1C02030008B5024B1B681B6C87
:104F9C00019308BD1C02030008B5024B1B685B6C37
:104FAC00019308BD1C020300002240681146FFF764
:104FBC0093BF002240681146FFF79EBF4068002255
:104FCC00FFF792BF4068002281F00101FFF77CBF20
:104FDC00002340681A461946FFF76EBF002340684D
:104FEC001A461946FFF760BF002240681146FFF7CA
:104FFC0053BF002240681146FFF73EBF40680022B5
:10500C000221FFF741BF002340681A46FFF72CBF6F
:10501C00024B03225A60024A1A607047DCE60320F6
:10502C0094630B00054B02221A60054B054A9A60EB
:10503C000020C3E90000FFF7EBBE00BFF0E6032041
:10504C00E4E603200000FFFF10B50446FEF7EAFF7C
:10505C00013823182046834206D90278197800F8C3
:10506C00011B03F80129F6E710BD70B50C46911E23
:10507C0022291DD8254630B9234430229D4210D216
:10508C0005F8012BFAE7B0FBF2F602FB1600C1B2F1
:10509C00092894BF30315731C9B205F8011B30468D
:1050AC00E9E7002320462B70FFF7CEFF204670BDAA
:1050BC000020FCE738B5031E0C4615460EDAB3F19A
:1050CC00004F4FF02D0214BF5842184601230A70AE
:1050DC002A461944FFF7C9FF204638BD0123F9E7DA
:1050EC0010B504460068FFF737FF204610BD10B519
:1050FC000446006808B1FFF72FFF0023C4E9013311
:10510C00236010BD38B504460D4600680131FFF729
:10511C002BFF10B1C4E90005012038BD10B50368A0
:10512C00044623B143688B4201D3012010BD2046B5
:10513C00FFF7E8FF0028F9D0A368002BF5D122680F
:10514C001370F2E737B50D46114601920446FFF78E
:10515C00E5FF019A28B92046FFF7C9FF204603B0A6
:10516C0030BDA2602946206801F002F82268A368CD
:10517C000021D154F2E7002313B5C0E900330446F3
:10518C008360037341B108460191FEF74BFF01990F
:10519C0002462046FFF7D6FF204602B010BD13B5DD
:1051AC00044659B108460191FEF73CFF01990246AD
:1051BC002046FFF7C7FF204602B010BDFFF797FF50
:1051CC00F9E710B504468AB00023C4E90033A360A4
:1051DC002373084601A9FFF76DFF01A92046FFF7CD
:1051EC00DEFF20460AB010BD02680B46096862B1AA
:1051FC0041B9806860B110787047986840B10978FF
:10520C00484270471046FEF703BF0029F5D1084607
:10521C00704710B54368013B0446436063B90368AB
:10522C009B689847A368013BA3602BB92368204671
:10523C00DB68BDE81040184710BD00000248002391
:10524C000360FFF71DBD00BFF4E60320F8B506466A
:10525C000D468F180024BD420CD0336815F8011B85
:10526C009B6830469847031E01DB1C44F3E7002C77
:10527C0008BF1C462046F8BD13B50446084659B174
:10528C000191FEF7CFFE23680199DB6802462046A8
:10529C0002B0BDE81040184702B010BD03689B680F
:1052AC00184730B58BB00023012A8DF8243098BFF5
:1052BC000A2209AC0D46B1FBF2F101FB125303F0CB
:1052CC00FF03092B94BF30333733DBB2AA4204F807
:1052DC00013DEFD92146FFF7CFFF0BB030BD0000E9
:1052EC00014B024A1A607047F8E60320D0630B00AA
:1052FC00024B1A68024B1A60704700BF88E5032006
:10530C00FCE603200021FFF78BBD000010B5044B19
:10531C0003600446806908B1FFF77BFF204610BD8F
:10532C00A0640B0010B50446FFF7F0FF20461C21CB
:10533C00FEF7C1FE204610BD014B00229A6070475B
:10534C0000E70320014B1860704700BF8CE5032079
:10535C0008B50B4B43B100F07DF903681B69984706
:10536C00002801DDAFF30080064B43B100F0C2FD15
:10537C0003681B699847002801DDAFF3008008BD66
:10538C00000000000000000008B5FFF7E1FFFFF788
:10539C0057FC014B186008BD58E703200548064A26
:1053AC00064908B5121A00F0E3FE054B054A1A60CF
:1053BC0008BD00BF00F4032004F403202C680B008C
:1053CC0000F403201E1C279A07B5002300931A46ED
:1053DC006FF07701FFF73EFD03B05DF804FB0000B2
:1053EC0007B543880A2B08D0502B0BD1094B1B68EF
:1053FC004BB103B05DF804EB1847FFF7E5FF03B0C2
:10540C005DF804FB002300931A466FF07701FFF759
:10541C0021FDF4E714E7032010B512480021FFF733
:10542C00BBFD114B1A68114B9A42114B0CBF012258
:10543C0000221A7001D0FFF7B1FFFFF7F9FB044609
:10544C0000F0ACFE0B4B13B12046AFF300800021F3
:10545C000848FFF771FDBDE8104007480021FFF731
:10546C00EFBC00BF51530B0000F403201E1C279A05
:10547C0010E7032000000000ED530B00704710B53F
:10548C0018210446FEF717FE204610BDF0B5037D2B
:10549C00062B8DB00E4600F104074FF0000412D01D
:1054AC0000F1080515F8011D0A223046FFF7F9FE38
:1054BC00AF42044419D0002CF4D02E213046FFF713
:1054CC00EDFE0444EEE72F236A4639460A208DF898
:1054DC000040FFF7DDFB6846FEF7A4FD336802468B
:1054EC00DB68694630469847044620460DB0F0BD4F
:1054FC0010B5054B0446112240F8043B002100F086
:10550C0045FE204610BD00BFF8630B000346074A5A
:10551C0010B543F8042B01F1100251F8044B43F879
:10552C00044B9142F9D10A781A7010BDF8630B0044
:10553C00037D042B04D14068003818BF012070474C
:10554C00062B07D143683BB983682BB9C3681BB9D9
:10555C000069F1E7002070470120704710B59DF8F5
:10556C00084044EA032343EA024242EA016104236D
:10557C004160037510BD000007B5064B0360CB7886
:10558C0000938B784A780978FFF7E8FF03B05DF851
:10559C0004FB00BFF8630B00417470477047704701
:1055AC0008B50021007CFFF713FC40EAE07008BD51
:1055BC0008B50121007CFFF70BFC40EAE07008BD48
:1055CC0008B5007CFFF7FCFB20EAE07008BD08B5CD
:1055DC00007CFFF7EDFB20EAE07008BD13B5044634
:1055EC00007C0191FFF7ECFB0028019901DC607C49
:1055FC0020B1207CFFF7F4FB20EAE07002B010BD74
:10560C00007CFFF7F5BB10B514210446FEF753FDE3
:10561C00204610BD10B54FF47A730446084600219D
:10562C00C4E90113044B23600123207463741146F5
:10563C00FFF7AEFB204610BD0C640B00007C002273
:10564C00FFF7AEBB10B514220446002100F09EFDFE
:10565C00204610BD10B50F4C88B003A8FFF7F2FF21
:10566C002178BFF35B8F11F001010FD1204601911E
:10567C00FEF723FD019948B103AA0748FFF7CAFFBB
:10568C002046FEF71FFD054800F06CFD024808B0EF
:10569C0010BD00BF18E703201CE70320A9550B0021
:1056AC0070474174704708B5007CFFF731FB20EA66
:1056BC00E07008BD08B5007CFFF70AFB20EAE0703B
:1056CC0008BD08B5007CFFF713FB40EAE07008BD8D
:1056DC0008B5007CFFF704FB40EAE07008BD007CD5
:1056EC00FFF70EBB37B5457C04462DB1207C03B0CB
:1056FC00BDE83040FFF7E4BA007C0191FFF708FBEE
:10570C0000280199F2DC284603B030BD10B51421F5
:10571C000446FEF7D0FC204610BD000010B54FF437
:10572C007A730446084611460022C4E90123044B4F
:10573C002360012320746374FFF7F2FA204610BD36
:10574C003C640B0013B503688DF80710DC6B012269
:10575C004FF0FF330DF10701A04702B010BD10B49C
:10576C000368DC6B4FF0FF33A4465DF8044B6047D5
:10577C0013B5134602688DF80710D46B0DF10701B1
:10578C000122A04702B010BD10B54369B3F88620C2
:10579C00B3F884309A42044608D06369B3F8842085
:1057AC00511CA3F884101344187910BD03681B69AD
:1057BC0098470028F1D14FF0FF30F6E77047436966
:1057CC001868C043C00F704770470000064B9942E1
:1057DC0010B500F10C0405D0084600F0B1FB002810
:1057EC0008BF0024204610BDC8630B0010B5AC21C7
:1057FC000446FEF760FC204610BDAC21FEF75BBCF6
:10580C002DE9F0414FF0000886B01C46C0F804802A
:10581C0005460E4617464146102202A800F0B6FC7B
:10582C00631C09D04FF47A73B4FBF3F203FB1244FC
:10583C00CDE902285C430494686910230093006846
:10584C0002AB41F2050240F6FF71FFF771FA002836
:10585C0007DAFFF791FB03686B60002006B0BDE828
:10586C00F0816869002300683A463146FFF780FAF8
:10587C00031EEEDB1846F1E730B587B0044601ADE8
:10588C006846FFF779FE0FCD04340FC42B682370E4
:10589C0007B030BD70B54D69054B04468C3544F8E6
:1058AC00043B06460FCD0FC42B682370304670BDE9
:1058BC00F8630B002DE9F0439846036893B00D464E
:1058CC000024DB6A06461746984728466B46224654
:1058DC0021460094FFF79CF90546002863D1009BF4
:1058EC00002B4BD05B69002B48D006A8FFF700FEBD
:1058FC00009B5C696378022B04D1211D06A8FFF77D
:10590C00BBFF26E00A2B24D11122294601A800F066
:10591C003DFCA368002B38D004F108030DF1040CF6
:10592C00183418685968624603C20833A342944677
:10593C00F7D1062301A90CA88DF81430FFF7E6FD6A
:10594C000DF1340CBCE80F0007AC0FC4DCF80030D0
:10595C00237006A8FFF7ECFD80B1336807ADD3F8D0
:10596C002090124B0C930FCD0DAC0FC42B682370F1
:10597C003A4643460CA93046C84705460098FFF7FF
:10598C003FF9284613B0BDE8F083E368002BC3D180
:10599C004FF6FF70D4F81090FFF782F98145BBD118
:1059AC0004F11401AAE72546E8E700BFF8630B00F1
:1059BC0038B543691A68002A054610DAB3F8862010
:1059CC00B3F884309A420AD103681B69984704469D
:1059DC0028B92B682846DB6A9847204638BD012039
:1059EC00FCE710B54369B3F88620B3F884309A42CB
:1059FC00044605D06369B3F884201344187910BDAC
:105A0C0003681B6998470028F4D14FF0FF30F6E784
:105A1C00F8B543691746B3F88620B3F884309A4238
:105A2C0005460E4616D06969B1F88430B1F8864047
:105A3C00E41ABC4228BF3C46043322461944304683
:105A4C0000F096FB6A69B2F884302344A2F88430E3
:105A5C002046F8BD03681B6998470028E3D14FF036
:105A6C00FF34F5E742690023A2F884304269A2F8BA
:105A7C00863070472DE9F0411F4603680C46DB6AFF
:105A8C008AB0054616469847237DD5F81480042B1A
:105A9C000CBF02200A2006220121FFF771F9C8F879
:105AAC0000006B691B68002B08DA2B682846DB6A40
:105ABC000024984720460AB0BDE8F0812846FFF73D
:105ACC00D1FFB7B1002303A9F8B20393ADF810309E
:105ADC00FFF7A6F80028E8D1686906230093006850
:105AEC0003AB41F20B0240F6FF71FFF721F90028DE
:105AFC00DBD11C22002103A800F048FB237D042BE2
:105B0C001DD14FF407733046ADF80C30FFF7D0F8C9
:105B1C00ADF80E006068FFF7C3F804906B691C22A7
:105B2C00186803A9FFF714F90028BED104340FCC70
:105B3C006D698C350FC523682B700124BAE740F6CC
:105B4C001C233046ADF80C30FFF7B2F805AEADF8BB
:105B5C000E00231D04F1140718685968324603C25D
:105B6C000833BB421646F7D1D8E7000030B542697E
:105B7C00B2F886308BB004462BB1B2F884209A422E
:105B8C0001D1FFF76FFF61690868002818DBB1F8D5
:105B9C0086507F2D14D804310823C5F18002294486
:105BAC00FFF7DEF8002813DD6369B3F886200AB925
:105BBC00A3F884206369B3F886201044A3F8860008
:105BCC006369B3F88600B3F88430C01A0BB030BDEB
:105BDC00FFF7D2F903680B2BF2D0FFF7CDF903686E
:105BEC000B2BEDD020230025CDE90235FFF7C4F9AE
:105BFC0003680193084B0949009302AA2B463220F3
:105C0C00FFF7FEF863691868FFF79AF863694FF0BD
:105C1C00FF321A60D4E700BF6B640B0064640B00A6
:105C2C0010B5436904461868002801DBFFF788F8B3
:105C3C0063694FF0FF321A606069112200218C30C9
:105C4C0000F0A4FA2046BDE81040FFF70BBF10B5DA
:105C5C00002304460160C0F884308830FFF748FC0C
:105C6C00204610BD73B500234FF47A72C0E901329F
:105C7C000E4A0361026043610446AC200191FEF7B9
:105C8C0014FA051E05F10C0608D00123C5E90133F1
:105C9C00074B01992B603046FFF7D9FF2046C4E92A
:105CAC000565FFF7DFFE02B070BD00BFA0640B00FE
:105CBC0084640B0010B54FF0FF310446FFF7D2FFA0
:105CCC00204610BD10B504460068002801DBFFF724
:105CDC0037F8204610BD0C30FFF7F4BF00224068A7
:105CEC001146FFF7D9B8002240681146FFF7F4B807
:105CFC00002240681146FFF7FFB840680022FFF70A
:105D0C00F3B84068002281F00101FFF7DDB80023F1
:105D1C0040681A461946FFF7CFB8002340681A4668
:105D2C001946FFF7C1B8002240681146FFF7A4B826
:105D3C00406800220221FFF7A7B8002340681A46EA
:105D4C00FFF792B8024B04225A60024A1A6070475D
:105D5C0030E70320EC640B00002340681A46FFF781
:105D6C0083B8406800220221FFF78EB800224068F9
:105D7C001146FFF781B8002240681146FFF78CB836
:105D8C00002340681A461946FFF78EB80023406876
:105D9C001A461946FFF790B840680021FFF7B4B8CF
:105DAC0040680021FFF7B8B84068002281F001017B
:105DBC00FFF78AB840680022FFF796B800224068C7
:105DCC001146FFF799B8002240681146FFF784B8D6
:105DDC002DE9F04395B014460D460746FFF788FBB6
:105DEC0000211C220DA8009100F0D0F940230C9347
:105DFC0020466B460CAA0021FEF70AFF0446002839
:105E0C004BD1024601216868FFF746F80221804613
:105E1C0022466868FFF740F8009E81462146002E16
:105E2C003BD0002939D17368022B03D00A2B11D037
:105E3C00F669F4E7B8F1000FFAD0716906A80431DD
:105E4C0007ADFFF799FB0FCD3C1D0FC42B682370DA
:105E5C004146EDE7B9F1000FEAD07469102201A8B0
:105E6C0000F094F906238DF8143001AD04F1080309
:105E7C001834186859682A4603C20833A3421546D9
:105E8C00F7D101A906A807ADFFF740FB0FCD3C1DCC
:105E9C000FC42B6823704946CAE70098FEF7B0FE82
:105EAC00384615B0BDE8F083024B034A1A60002255
:105EBC005A60704738E7032028650B0070470000D4
:105ECC0038B5044614252A46002100F05FF92580D8
:105EDC004025074925812846258200F02FF80449E2
:105EEC006060284600F02AF8E060204638BD00BF0C
:105EFC005C650B0030B50E4D2978BFF35B8F11F04C
:105F0C00010487B011D12846FEF7D7F868B101A873
:105F1C00FFF7D6FF01AA21460648FFF7FFFB2846EC
:105F2C00FEF7D0F8044800F01DF9024807B030BD68
:105F3C0040E7032044E70320C95E0B00FEF7B7B827
:105F4C00014900F0F9B800BF78650B007FB500245B
:105F5C001023CDE90234036815469E6912686B461E
:105F6C00CDE90044B0479DF8043003F00603062B3E
:105F7C0003BF009B2B600120204604B070BD00982D
:105F8C00904214BF012006207047000010B5034B4F
:105F9C000360044600F0CDF8204610BDB8650B0038
:105FAC0010B50446FFF7F2FF20460821FEF783F8F0
:105FBC00204610BD2DE9F0411F46DDE90834DDF81F
:105FCC00188098450646154607D1079900F0B4F895
:105FDC0018B165710020BDE8F0813946304600F0FB
:105FEC00ABF80028F6D00123C4F800802571A3710A
:105FFC00F0E738B515461C4600F09EF820B1082392
:10600C00E36006232560237138BD73B505460C4645
:10601C0001921E4600F090F850B9032E08D8236860
:10602C00019A5B692946204602B0BDE870401847CA
:10603C0002B070BD10B5034B03600446FFF7A6FF1A
:10604C00204610BD18660B0010B50446FFF7F2FF92
:10605C0020460C21FEF72FF8204610BDF7B5089FFF
:10606C00974205460E4614460AD0A868026808975F
:10607C00156A31462246AC4603B0BDE8F040604795
:10608C001946019300F058F8019B0028EDD006202A
:10609C0003B0F0BD2DE9F14F0D461946DDE90A4B71
:1060AC00DDE90CA681461746984600F045F890B1FC
:1060BC00002D3460377109DB61198A450CBF06214C
:1060CC000121B171002001B0BDE8F08F0235F9D18A
:1060DC000123B371F6E7544506D15946484600F002
:1060EC002BF808B17771EDE7D9F808000368CDE912
:1060FC000CA6CDE90A4BDC693A4643462946A44630
:10610C0001B0BDE8F04F60472DE9F04107460C4661
:10611C0015461E46FFF76DFF48B9B86803689F69BE
:10612C002A4633462146BC46BDE8F0416047BDE8EF
:10613C00F081704700207047814208B50ED040684E
:10614C0003782A2B0CD049680B782A2B08BF013115
:10615C00FDF75EFFB0FA80F0400908BD0120FCE7B6
:10616C000020FAE7002301461A46184600F044B80E
:10617C000A44914200F1FF3300D1704710B511F879
:10618C00014B03F8014F9142F9D110BD0244034673
:10619C00934200D1704703F8011BF9E738B5104B57
:1061AC001D68AB6B0446B3B91820FEF7CDFE024652
:1061BC00A86320B90B4B0C484221FEF7E5FE0B49B6
:1061CC000B4BC0E900130B4B83600B238381002125
:1061DC000120C2E90401AB6B00221C615A6138BD7D
:1061EC008CE5032051660B0068660B000E33CDABBB
:1061FC0034126DE6ECDE05002DE9F843DFF8B880CB
:10620C000646D8F800001F460D46914600F056F899
:10621C00254B1C6834B9254C1C60254B13B11B68ED
:10622C00C4F8883063681F2B07DDD8F8000000F035
:10623C0047F84FF0FF30BDE8F8834EB3D4F8880030
:10624C0088B91C4B23B9D8F8000000F038F8F0E7F7
:10625C004FF48470FEF778FE0028F4D00023C0E9D8
:10626C004033C4F88800636840F8239001229A40B8
:10627C0000EB8301D0F800311343C0F80031022E3B
:10628C00C1F8807002BFD0F804311343C0F8043158
:10629C006368D8F800005A1C0233626044F823503B
:1062AC0000F00EF80020C6E7E8E703205CE70320C7
:1062BC0000000000554F0B00F0E5032070477047BD
:1062CC007047000000044D5154540400064D5149D0
:1062DC007364700341400B007D400B00A5400B0024
:1062EC00A9400B00000000006C61622E7468657799
:1062FC00636C2E636F6D0042656E2F4C616231379B
:10630C002F4E6F7274682F670042656E2F4C61625E
:10631C0031372F4E6F7274682F790042656E2F4C97
:10632C00616231372F4E6F7274682F720042656E46
:10633C002F4C616231372F456173742F67004265B2
:10634C006E2F4C616231372F456173742F79004287
:10635C00656E2F4C616231372F456173742F72005B
:10636C0042656E2F4C616231372F4E6F727468002C
:10637C0042656E2F4C616231372F4561737400009A
:10638C00000000000000000013500B0009500B002F
:10639C00FF4F0B00F54F0B00E94F0B00DD4F0B00CF
:1063AC00A55D0B00AD5D0B00D14F0B00C94F0B0071
:1063BC00BF4F0B00B54F0B00DD5D0B000000000064
:1063CC00000000006170700025592D256D2D25648D
:1063DC005425483A254D3A2553257A006173637448
:1063EC00696D6500000000000000000099540B006E
:1063FC0089540B008B540B000000000000000000BF
:10640C00AB550B0013560B00E9550B0059520B0002
:10641C00DB550B00AD550B00BD550B000D560B009D
:10642C00CD550B00A5550B0000000000000000002E
:10643C00AD560B0019570B00F1560B0059520B00BF
:10644C00C1560B00DD560B00CF560B00EB560B0064
:10645C00AF560B00B3560B00776972696E6700720A
:10646C00656376206572726F72203D202564000092
:10647C000000000000000000D5570B00F9570B007E
:10648C00E35C0B0007580B00D9570B000000000011
:10649C000000000019530B0031530B0051570B0037
:1064AC006B570B00795B0B0095570B00EF590B00EA
:1064BC00C9570B00815A0B00C1580B001D5A0B0019
:1064CC002D5C0B00BD590B00CB570B007D570B00FF
:1064DC000D580B00A1580B0000000000000000003C
:1064EC00475D0B003D5D0B00335D0B00E95C0B0061
:1064FC00275D0B001B5D0B00A55D0B00AD5D0B005C
:10650C000F5D0B00075D0B00FD5C0B00F35C0B00DB
:10651C00DD5D0B000000000000000000655D0B005D
:10652C006F5D0B00795D0B00835D0B008D5D0B00C7
:10653C00995D0B00A55D0B00AD5D0B00B55D0B000F
:10654C00C15D0B00C95D0B00D35D0B00DD5D0B0065
:10655C0000537431395F53705F6D616B655F7368A5
:10656C00617265645F74616700000000B8650B00C0
:10657C005D650B0018660B008C650B003C660B0010
:10658C004E31305F5F637878616269763131375FA5
:10659C005F636C6173735F747970655F696E666F4E
:1065AC00450000000000000080650B00995F0B00A7
:1065BC00AD5F0B0041610B0041610B0017600B00DC
:1065CC00595F0B00FF5F0B00C15F0B008B5F0B0073
:1065DC0018660B00E8650B0080650B004E31305FD0
:1065EC005F637878616269763132305F5F73695FBF
:1065FC00636C6173735F747970655F696E666F4508
:10660C000000000000000000DC650B0041600B0086
:10661C0055600B0041610B0041610B0017600B00D2
:10662C00595F0B0015610B00A1600B0069600B003A
:10663C00B8650B0044660B00537439747970655F50
:10664C00696E666F005245454E54206D616C6C6FDF
:10665C006320737563636565646564002F6D6E7488
:10666C002F776F726B73706163652F776F726B73BB
:10667C00706163652F4743432D31302D7069706510
:10668C006C696E652F6A656E6B696E732D4743433B
:10669C002D31302D706970656C696E652D34385FE5
:1066AC0032303230313132345F313630363138308D
:1066BC003634312F7372632F6E65776C69622F6E6F
:1066CC0065776C69622F6C6962632F7374646C6993
:1066DC00622F72616E642E6300000000D9420B00C1
:1066EC001D500B0031500B0049520B00ED520B00AA
:1066FC00FD520B0045530B00515D0B00B55E0B00BA
:10670C00040000001400000003000000474E550078
:10671C00C5B9124339D867643A30E7BB42196AF4F9
:04672C0044F42D19EB
:106730000100000000000000000000000000000058
:1067400000000000010000000A000000000000003E
:106750000100000000000000010000000000000037
:10676000000000000000000001000000881300008D
:106770000200000002000000000000000000000015
:106780000100000001000000000000000000000007
:106790000A000000030000000200000000000000EA
:1067A00000000000010000000000000001000000E7
:1067B000000000008813000000000000000000003E
:1067C000E8630B0090E503200000000000000000DB
:1067D00000000000000000000000000000000000B9
:1067E00000000000000000000000000000000000A9
:1067F0000000000000000000000000000000000099
:106800000000000000000000000000000000000088
:106810000000000000000000000000000000000078
:0C6820000000000000000000ECE7032076
:04682C000000000068
:1068360000000102030405060708090A0B0C0D0EE9
:106846000F101112131415161718191A1B1C1D1EDA
:046856001F202800D7
:04685A007856341226
:04000003B000401CED
:00000001FF
